:020000040800F2
:1000000078040020B1010008E70C00088F0C0008FC
:10001000E50C000899020008F90D00080000000036
:100020000000000000000000000000000B0D0008B0
:100030004103000800000000090D00080D0D000834
:10004000CB010008CB010008CB010008CB01000860
:10005000CB010008CB010008CB010008CB01000850
:10006000CB010008CB010008CB010008CB01000840
:10007000CB010008CB010008CB010008CB01000830
:10008000CB010008CB010008CB01000800000000F4
:10009000000000000000000000000000CB0100088C
:1000A000CB010008CB010008CB010008CB01000800
:1000B000CB010008CB010008CB010008CB010008F0
:1000C000CB010008CB010008CB010008CB010008E0
:1000D000CB010008CB010008CB01000800000000A4
:1000E000CB010008CB010008CB0100080000000094
:1000F000000000000000000000000000CB0100082C
:1001000000000000CB010008CB010008CB01000873
:1001100000000000000000000000000000000000DF
:10012000CB010008CB010008CB010008CB0100087F
:10013000CB010008000000000000000000000000EB
:10014000000000000000000000000000CB010008DB
:10015000CB010008CB010008CB010008CB0100084F
:10016000CB010008CB0100080000000000000000E7
:10017000000000000000000000000000000000007F
:1001800000000000CB01000800000000000000009B
:10019000CB010008CB010008DFF810D000F06AF8AE
:1001A00000480047190E0008AFF3008078040020D3
:1001B0000648804706480047FEE7FEE7FEE7FEE701
:1001C000FEE7FEE7FEE7FEE7FEE7FEE7A50D000817
:1001D000990100082DE9F05F0546002092469B46F4
:1001E00088460646814640241BE02846414647464D
:1001F000224600F02FF853465A46C01A914110D3B8
:1002000011461846224600F016F82D1A67EB010831
:100210004F4622460120002100F00DF817EB00099F
:100220004E41201EA4F10104DFDC484631462A4637
:100230004346BDE8F09F202A04DB203A00FA02F191
:10024000002070479140C2F1200320FA03F31943C4
:1002500090407047202A04DB203A21FA02F0002166
:10026000704721FA02F3D040C2F1200291400843C6
:1002700019467047064C074D06E0E06840F0010360
:1002800094E8070098471034AC42F6D3FFF788FF94
:10029000A40E0008C40E0008FEE700000168182341
:1002A000CAB2103AB2FBF3F2054B6FF30901032A0D
:1002B0009B5CC36500D9091D816508467047000035
:1002C0008C0E000810B5014600208B698A6A4FF039
:1002D000C07453B1B3F5005F15D072B1012A0CD0D0
:1002E000022A0AD0032A09D104E01AB1012A06D051
:1002F000022A03D1C96AC90100D5012010BDC96A0B
:10030000A142FAD010BD002AF7D0012AF2D0022A69
:10031000F3D0032AF3D010BD30B50468256825F466
:1003200080252560046863608368402B036803D0E0
:1003300099600068C26030BD9A600068C16030BDDD
:1003400070472DE9F0410446876D00F061F90646DB
:1003500094F835000025022806D08020606584F8D6
:1003600034500120BDE8F0812068016821F01601B9
:1003700001602068416921F080014161206C08B969
:10038000A06C20B12068016821F00801016020689C
:10039000016821F0010101600BE000F039F9801BD8
:1003A000052806D92020606504F8345F03206070BA
:1003B000D8E720680068C007EFD194F85C103F20B0
:1003C0008840B86004F8345F012060700020C9E7FD
:1003D0002DE9F041044600F01BF906465CB100250A
:1003E00084F83450022084F835002068016821F038
:1003F000010101600DE00120BDE8F08100F008F985
:10040000801B052805D920206065032084F835006D
:10041000F2E720680068C007F0D122681168204820
:100420000140D4E901031843D4E9033633431843A8
:1004300063691843A3691843E3691843236A18439F
:100440000843616A042903D1D4E90B131943084313
:10045000106020684069666A20F0070130460E434C
:10046000012704280CD1A06A0643E06A40B1204667
:10047000FFF728FF20B14020606584F83570BAE7A7
:10048000206846612046FFF709FF94F85C203F2171
:1004900091408160656584F835700020ACE700000C
:1004A0003F8010F02DE9F74F82B0044600208946C6
:1004B000019000F0ADF8009094F835000027022874
:1004C00004D08020606584F8347068E0206800689B
:1004D000C00503D54FF48070606560E094F85C005F
:1004E0004FF0200B4FF0100AB9F1000F06D00AFAB6
:1004F00000F6A56D28684FF001083AE00BFA00F607
:10050000F7E70498401C12D0049830B100F080F84E
:100510000099411A0498814209D9C4F854B004F8EA
:10052000347F84F80180032005B0BDE8F08F28688F
:1005300094F85C2008219140014204D0626D42F0A1
:1005400001026265A96094F85C2008FA02F1014298
:1005500004D0626D42F002026265A96094F85C20EA
:1005600004219140014204D0626D42F004026265B0
:10057000A960304202D1606DC007C2D0606D3026E4
:1005800078B1606DC0070CD02046FFF7DAFE94F812
:100590005C008640AE6004F8347F84F8018001205E
:1005A000C2E7B9F1000F06D094F85C100AFA01F026
:1005B000A8600198B8E794F85C008640AE6004F843
:1005C000347F84F80180F4E770B5044690F8340075
:1005D000002501280CD0012084F8340094F83560FF
:1005E0000020012E06D084F834000225284670BD74
:1005F000022070BD022684F8356060652046FFF752
:100600008BFE2068016841F001010160EEE7000007
:10061000014880687047000004000020024881689B
:100620000278114481607047040000200B4810B527
:10063000016841F400710160016841F4806101606A
:10064000016841F480710160032000F08BF8002004
:1006500000F006F800F024F8002010BD003C024035
:1006600070B50D4D04464FF47A712878B1FBF0F067
:100670000A490968B1FBF0F000F0F1FA48B9102C12
:1006800007D200222146501E00F04CF800206C607A
:1006900070BD012070BD000004000020100000208B
:1006A0001F4808B5016841F480410160006800F40A
:1006B000804000901A48001F016841F0805101609D
:1006C000006800F080500090032000F04BF80022FA
:1006D00011466FF00B0000F025F8002211466FF074
:1006E0000A0000F01FF8002211466FF0090000F028
:1006F00019F800221146501F00F014F8002211468C
:10070000101F00F00FF800221146901E00F00AF8AA
:100710000022BDE808401146501E00F003B800005A
:1007200044380240F0B40E4B1B680C46C3F302235E
:10073000C3F10705042D00D90425191D072901D28D
:10074000002300E0DB1E012606FA05F1491E2140C8
:1007500099409E40761E16403143F0BC00F0C4BA6A
:100760000CED00E0064900F0070208684FF6FF03B1
:10077000184040EA0220034A104308607047000016
:100780000CED00E00000FA052DE9F0470E460500EB
:1007900065D0DFF81481D8F80000F7B200F00F0040
:1007A000B04207D288F80070D8F8000000F00F00BF
:1007B000B04254D128683D4C810712D5400703D57B
:1007C000206840F4E05020602878000703D52068B6
:1007D00040F4604020602068A96820F0F0000843E1
:1007E00020602878C0072DD0304968680839012872
:1007F00012D0022813D0032811D0096889070029D4
:100800002DDA216821F0030101432160FFF700FF89
:10081000814641F2883A0EE009688903EFE70968EA
:100820008901ECE7FFF7F4FEA0EB0901514502D97D
:100830000320BDE8F0872068696800F00C00B0EB89
:10084000810FEFD1D8F80010404601F00F01B142FE
:1008500007D90770006800F00F00B04201D00120F6
:10086000E7E72878400705D52068E96820F4E050DC
:10087000084320602878000706D52068296920F4FD
:10088000604040EAC100206000F01CF82168084A7E
:10089000C1F30311515CC840064908600020FFF70E
:1008A000DFFE0020C5E70000003C0240083802409F
:1008B000940E0008100000200148006870470000F6
:1008C00010000020154810B5006810F00C02144804
:1008D00013D01449042A0FD0082A0ED10F4C241F1C
:1008E0002268236802F03F025B0207D52068C0F34C
:1008F0008810A0FB010106E0084610BD2168C1F385
:100900008811A1FB00010023FFF764FC2168C1F3FB
:100910000141491C4900B0FBF1F010BD083802400C
:100920000024F40040787D012DE9F84F050076D0D1
:100930002878DFF8F8B2BE4CC00749D0DBF80010C9
:100940005846C1F38101012908D00068C0F3810035
:1009500002280AD1201D0068400206D520688003C5
:1009600036D568680028E2D032E06868B0F5803F8C
:1009700010D0B0F5A02F206810D020F48030206077
:10098000206820F4802020606868A0B1FFF740FE56
:1009900006460CE0206840F48030F4E740F4802004
:1009A0002060F7E7FFF734FE801B642873D82068C7
:1009B0008003F7D50CE0FFF72BFE064605E000BFED
:1009C000FFF726FE801B6428F0D820688003F7D448
:1009D0002878DFF8608280074FF000093ED5DBF809
:1009E0000010584611F00C0F09D00068C0F38100C8
:1009F00002280BD18D48001F0068400206D42068F1
:100A0000800715D5E868012809D111E0E868B8B178
:100A10000120C8F80000FFF7FBFD064605E002E1F3
:100A2000FFF7F6FD801B0228C0D820688007F7D5A5
:100A30002068296920F0F80040EAC10020600DE03C
:100A4000C8F80090FFF7E4FD064604E0FFF7E0FD7C
:100A5000801B02281FD820688007F7D42878000759
:100A600022D5724E744869696C3671B101210160FA
:100A7000FFF7CEFD074604E0FFF7CAFDC01B0228C2
:100A800009D830688007F7D50EE0C0F80090FFF76E
:100A9000BFFD074605E083E0FFF7BAFDC01B022853
:100AA0007ED830688007F7D42878400768D5DFF80B
:100AB0007CA100270AF1380ADAF80000C0000BD444
:100AC000DAF8001041F08051CAF80010DAF800009E
:100AD000012700F080500090584E3068C00510D4B7
:100AE000306840F480703060FFF792FD009005E0C0
:100AF000FFF78EFD0099401A022851D83068C005D2
:100B0000F6D54A4EA868683601280FD00528306807
:100B100010D020F001003060306820F00400306018
:100B2000A868B8B1FFF774FD00900FE0306840F09E
:100B30000100F4E740F004003060F7E7FFF768FDDC
:100B40000099411A41F28830814264D830688007A8
:100B5000F4D50EE0FFF75CFD009007E0FFF758FDCD
:100B60000099411A41F28830814254D83068800798
:100B7000F4D42FB1DAF8001021F08051CAF8001037
:100B8000A869C0B3DBF80010C1F3810102294AD083
:100B90000228484607D0C8F86000FFF739FD00E09A
:100BA00039E005463AE04746C8F86000FFF730FDF7
:100BB000064604E0FFF72CFD801B02282BD8206896
:100BC0008001F7D4D5E907010843A96A1C4A4908FE
:100BD00002EB01416A6A41EA8211084395F82C1040
:100BE00040EA01611148001F016001203866FFF7EB
:100BF0000FFD054605E014E0FFF70AFD401B022843
:100C000009D820688001F7D50BE000BFFFF700FD91
:100C1000401B022802D90320BDE8F88F206880011C
:100C2000F4D40020F8E70120F6E70000083802407D
:100C30000038024000004742800E474200700040EA
:100C40000000FFFF4FF0E0210428086903D020F0E6
:100C500004000861704740F00400FAE7704710B5DF
:100C6000401EB0F1807F01D3012010BD4FF0E02481
:100C700060610F21601700F037F80020A0610720A5
:100C80002061002010BD10B5FFF7E8FF10BDFEE7A2
:100C9000114808B50268002142F480020260006831
:100CA0000E4A00F4800000900D48C0E90021802227
:100CB000C0E902210161416181610422C161C0E991
:100CC00008120322C0E90A210163FFF781FB002813
:100CD00000D0FEE708BD000030380240106402403A
:100CE00014000020FEE770470907090E002806DA05
:100CF00000F00F0000F1E02080F8141D704700F1B3
:100D0000E02080F8001470477047704710B5FFF777
:100D100085FCBDE81040FFF7B6BF000010B51F48C6
:100D200092B00024016841F080510160006800F039
:100D3000805011901A48016841F4404101600068F8
:100D4000069400F44040119002200090012003908E
:100D5000102004906846FFF7E7FD00B1FEE70F2082
:100D6000CDE90C040E940F9400210CA81094FFF709
:100D70000BFD00B1FEE7FFF79FFD4FF47A71B0FB6A
:100D8000F1F0FFF76CFF0420FFF75CFF0022114633
:100D9000501EFFF7C7FC12B010BD000040380240E3
:100DA000007000401048016841F4700101600F4874
:100DB000016841F0010101600C4A00210832116014
:100DC00002680B4B1A400260031D0A4A1A6002684F
:100DD00022F48022026005480C3001600249580666
:100DE000803908607047000088ED00E0003802405C
:100DF000FFFFF6FE10300024FEE702E008C8121FD5
:100E000008C1002AFAD170477047002001E001C1F3
:100E1000121F002AFBD17047FFF708FCFFF77EFF87
:100E2000FFF736FF164D174F4FF0FF3601232A46C6
:100E300014491548FFF7C8FB324600211248FFF756
:100E400031FBFFF7E5FB00F57A7400BFFFF7E0FB2D
:100E5000A042FBD901232A46791C0B48FFF7B4FBBB
:100E6000324600210848FFF71DFBFFF7D1FB00F5D4
:100E70007A7400BFFFF7CCFBA042FBD9D6E7000095
:100E8000140002400000002014000020000610168C
:100E9000000610160000000000000000010203041C
:100EA00006070809C40E0008000000201400000016
:100EB000FA0D0008D80E0008140000206404000099
:100EC0000A0E000800FF00000100000010000000F2
:080ED000000000000024F40002
:040000050800019955
:00000001FF
